{
  "_format": "hh-sol-artifact-1",
  "contractName": "Election",
  "sourceName": "contracts/election.sol",
  "abi": [
    {
      "inputs": [],
      "stateMutability": "nonpayable",
      "type": "constructor"
    },
    {
      "inputs": [
        {
          "internalType": "uint256",
          "name": "",
          "type": "uint256"
        }
      ],
      "name": "Ballots",
      "outputs": [
        {
          "internalType": "uint256",
          "name": "choiceCode",
          "type": "uint256"
        },
        {
          "internalType": "string",
          "name": "secretKey",
          "type": "string"
        },
        {
          "internalType": "string",
          "name": "signedVote",
          "type": "string"
        }
      ],
      "stateMutability": "view",
      "type": "function"
    },
    {
      "inputs": [
        {
          "internalType": "address",
          "name": "",
          "type": "address"
        }
      ],
      "name": "Voters",
      "outputs": [
        {
          "internalType": "address",
          "name": "voterAddress",
          "type": "address"
        },
        {
          "internalType": "string",
          "name": "name",
          "type": "string"
        },
        {
          "internalType": "string",
          "name": "phone",
          "type": "string"
        },
        {
          "internalType": "string",
          "name": "votingPassword",
          "type": "string"
        },
        {
          "internalType": "bool",
          "name": "eligible",
          "type": "bool"
        },
        {
          "internalType": "bool",
          "name": "isRegistered",
          "type": "bool"
        },
        {
          "internalType": "string",
          "name": "blindedVote",
          "type": "string"
        },
        {
          "internalType": "string",
          "name": "signedBlindedVote",
          "type": "string"
        }
      ],
      "stateMutability": "view",
      "type": "function"
    },
    {
      "inputs": [
        {
          "internalType": "string",
          "name": "_header",
          "type": "string"
        },
        {
          "internalType": "string",
          "name": "_slogan",
          "type": "string"
        }
      ],
      "name": "addCandidate",
      "outputs": [],
      "stateMutability": "nonpayable",
      "type": "function"
    },
    {
      "inputs": [],
      "name": "admin",
      "outputs": [
        {
          "internalType": "address",
          "name": "",
          "type": "address"
        }
      ],
      "stateMutability": "view",
      "type": "function"
    },
    {
      "inputs": [
        {
          "internalType": "string",
          "name": "",
          "type": "string"
        }
      ],
      "name": "blindedVotes",
      "outputs": [
        {
          "internalType": "address",
          "name": "",
          "type": "address"
        }
      ],
      "stateMutability": "view",
      "type": "function"
    },
    {
      "inputs": [],
      "name": "candidateCount",
      "outputs": [
        {
          "internalType": "uint256",
          "name": "",
          "type": "uint256"
        }
      ],
      "stateMutability": "view",
      "type": "function"
    },
    {
      "inputs": [
        {
          "internalType": "uint256",
          "name": "",
          "type": "uint256"
        }
      ],
      "name": "candidateDetails",
      "outputs": [
        {
          "internalType": "uint256",
          "name": "candidateId",
          "type": "uint256"
        },
        {
          "internalType": "string",
          "name": "name",
          "type": "string"
        },
        {
          "internalType": "string",
          "name": "slogan",
          "type": "string"
        },
        {
          "internalType": "uint256",
          "name": "voteCount",
          "type": "uint256"
        }
      ],
      "stateMutability": "view",
      "type": "function"
    },
    {
      "inputs": [],
      "name": "electionDetails",
      "outputs": [
        {
          "internalType": "string",
          "name": "adminName",
          "type": "string"
        },
        {
          "internalType": "string",
          "name": "adminEmail",
          "type": "string"
        },
        {
          "internalType": "string",
          "name": "adminTitle",
          "type": "string"
        },
        {
          "internalType": "string",
          "name": "electionTitle",
          "type": "string"
        },
        {
          "internalType": "string",
          "name": "organizationTitle",
          "type": "string"
        }
      ],
      "stateMutability": "view",
      "type": "function"
    },
    {
      "inputs": [],
      "name": "end",
      "outputs": [
        {
          "internalType": "bool",
          "name": "",
          "type": "bool"
        }
      ],
      "stateMutability": "view",
      "type": "function"
    },
    {
      "inputs": [],
      "name": "endElection",
      "outputs": [],
      "stateMutability": "nonpayable",
      "type": "function"
    },
    {
      "inputs": [],
      "name": "getAdmin",
      "outputs": [
        {
          "internalType": "address",
          "name": "",
          "type": "address"
        }
      ],
      "stateMutability": "view",
      "type": "function"
    },
    {
      "inputs": [],
      "name": "getAdminEmail",
      "outputs": [
        {
          "internalType": "string",
          "name": "",
          "type": "string"
        }
      ],
      "stateMutability": "view",
      "type": "function"
    },
    {
      "inputs": [],
      "name": "getAdminName",
      "outputs": [
        {
          "internalType": "string",
          "name": "",
          "type": "string"
        }
      ],
      "stateMutability": "view",
      "type": "function"
    },
    {
      "inputs": [],
      "name": "getAdminTitle",
      "outputs": [
        {
          "internalType": "string",
          "name": "",
          "type": "string"
        }
      ],
      "stateMutability": "view",
      "type": "function"
    },
    {
      "inputs": [],
      "name": "getElectionTitle",
      "outputs": [
        {
          "internalType": "string",
          "name": "",
          "type": "string"
        }
      ],
      "stateMutability": "view",
      "type": "function"
    },
    {
      "inputs": [],
      "name": "getEnd",
      "outputs": [
        {
          "internalType": "bool",
          "name": "",
          "type": "bool"
        }
      ],
      "stateMutability": "view",
      "type": "function"
    },
    {
      "inputs": [],
      "name": "getOrganizationTitle",
      "outputs": [
        {
          "internalType": "string",
          "name": "",
          "type": "string"
        }
      ],
      "stateMutability": "view",
      "type": "function"
    },
    {
      "inputs": [],
      "name": "getOrganizerAddress",
      "outputs": [
        {
          "internalType": "address",
          "name": "",
          "type": "address"
        }
      ],
      "stateMutability": "view",
      "type": "function"
    },
    {
      "inputs": [],
      "name": "getOrganizerSigniturePublicKey",
      "outputs": [
        {
          "internalType": "string",
          "name": "",
          "type": "string"
        }
      ],
      "stateMutability": "view",
      "type": "function"
    },
    {
      "inputs": [],
      "name": "getStart",
      "outputs": [
        {
          "internalType": "bool",
          "name": "",
          "type": "bool"
        }
      ],
      "stateMutability": "view",
      "type": "function"
    },
    {
      "inputs": [],
      "name": "getTotalCandidate",
      "outputs": [
        {
          "internalType": "uint256",
          "name": "",
          "type": "uint256"
        }
      ],
      "stateMutability": "view",
      "type": "function"
    },
    {
      "inputs": [],
      "name": "getTotalVoter",
      "outputs": [
        {
          "internalType": "uint256",
          "name": "",
          "type": "uint256"
        }
      ],
      "stateMutability": "view",
      "type": "function"
    },
    {
      "inputs": [],
      "name": "organizer",
      "outputs": [
        {
          "internalType": "address",
          "name": "organizerAddress",
          "type": "address"
        },
        {
          "internalType": "string",
          "name": "signiturePublicKey",
          "type": "string"
        }
      ],
      "stateMutability": "view",
      "type": "function"
    },
    {
      "inputs": [
        {
          "internalType": "string",
          "name": "_name",
          "type": "string"
        },
        {
          "internalType": "string",
          "name": "_phone",
          "type": "string"
        },
        {
          "internalType": "string",
          "name": "_votingPassword",
          "type": "string"
        }
      ],
      "name": "registerAsVoter",
      "outputs": [],
      "stateMutability": "nonpayable",
      "type": "function"
    },
    {
      "inputs": [
        {
          "internalType": "string",
          "name": "_blindedVote",
          "type": "string"
        }
      ],
      "name": "requestBlindSig",
      "outputs": [],
      "stateMutability": "nonpayable",
      "type": "function"
    },
    {
      "inputs": [
        {
          "internalType": "string",
          "name": "_adminName",
          "type": "string"
        },
        {
          "internalType": "string",
          "name": "_adminEmail",
          "type": "string"
        },
        {
          "internalType": "string",
          "name": "_adminTitle",
          "type": "string"
        },
        {
          "internalType": "string",
          "name": "_electionTitle",
          "type": "string"
        },
        {
          "internalType": "string",
          "name": "_organizationTitle",
          "type": "string"
        },
        {
          "internalType": "address",
          "name": "_organizerAddress",
          "type": "address"
        }
      ],
      "name": "setElectionDetails",
      "outputs": [],
      "stateMutability": "nonpayable",
      "type": "function"
    },
    {
      "inputs": [
        {
          "internalType": "string",
          "name": "_publicKey",
          "type": "string"
        }
      ],
      "name": "setSigniturePublicKey",
      "outputs": [],
      "stateMutability": "nonpayable",
      "type": "function"
    },
    {
      "inputs": [],
      "name": "start",
      "outputs": [
        {
          "internalType": "bool",
          "name": "",
          "type": "bool"
        }
      ],
      "stateMutability": "view",
      "type": "function"
    },
    {
      "inputs": [
        {
          "internalType": "string",
          "name": "",
          "type": "string"
        }
      ],
      "name": "usedSignatures",
      "outputs": [
        {
          "internalType": "bool",
          "name": "",
          "type": "bool"
        }
      ],
      "stateMutability": "view",
      "type": "function"
    },
    {
      "inputs": [
        {
          "internalType": "string",
          "name": "_signedVote",
          "type": "string"
        },
        {
          "internalType": "uint256",
          "name": "_choiceCode",
          "type": "uint256"
        }
      ],
      "name": "validBallots",
      "outputs": [],
      "stateMutability": "nonpayable",
      "type": "function"
    },
    {
      "inputs": [
        {
          "internalType": "bool",
          "name": "_verifedStatus",
          "type": "bool"
        },
        {
          "internalType": "address",
          "name": "voterAddress",
          "type": "address"
        }
      ],
      "name": "verifyVoter",
      "outputs": [],
      "stateMutability": "nonpayable",
      "type": "function"
    },
    {
      "inputs": [
        {
          "internalType": "uint256",
          "name": "_choiceCode",
          "type": "uint256"
        },
        {
          "internalType": "string",
          "name": "_secretKey",
          "type": "string"
        },
        {
          "internalType": "string",
          "name": "_signedVote",
          "type": "string"
        }
      ],
      "name": "vote",
      "outputs": [],
      "stateMutability": "nonpayable",
      "type": "function"
    },
    {
      "inputs": [
        {
          "internalType": "uint256",
          "name": "",
          "type": "uint256"
        }
      ],
      "name": "voters",
      "outputs": [
        {
          "internalType": "address",
          "name": "",
          "type": "address"
        }
      ],
      "stateMutability": "view",
      "type": "function"
    },
    {
      "inputs": [
        {
          "internalType": "address",
          "name": "_voter",
          "type": "address"
        },
        {
          "internalType": "string",
          "name": "blindSig",
          "type": "string"
        }
      ],
      "name": "writeBlindSig",
      "outputs": [],
      "stateMutability": "nonpayable",
      "type": "function"
    }
  ],
  "bytecode": "0x608060405234801561001057600080fd5b50600080546001600160a01b03191633179055612b6d806100326000396000f3fe608060405234801561001057600080fd5b50600436106102065760003560e01c806397d41b351161011a578063be9a6555116100ad578063ea09cdb61161007c578063ea09cdb614611148578063ef92bcab146111ec578063efbe1c1c146112ee578063f851a440146112f6578063fdedaa8a146112fe57610206565b8063be9a655514611113578063c5292c671461111b578063da58c7d914611123578063e173730c1461114057610206565b8063a9a981a3116100e9578063a9a981a314610f2f578063b108475914610f37578063b4c2b80e14611067578063be081b6f1461110b57610206565b806397d41b3514610ba85780639f05a36d14610bb0578063a1c6cfbf14610bb8578063a532742414610c6c57610206565b806359f784681161019d5780636d2f69661161016c5780636d2f6966146108b85780636e9960c314610ad05780637be9857214610af45780637ffbd1b214610afc578063831318f114610ba057610206565b806359f784681461070f57806361203265146107175780636247e532146107a757806364d198a1146108b057610206565b8063252f5108116101d9578063252f5108146104f857806326541b56146105b057806348343175146106d9578063506b8e0a146106e157610206565b80630b93400e1461020b5780630e2354cf146102255780630ec74bf7146102a25780631689a44c1461034a575b600080fd5b610213611556565b60408051918252519081900360200190f35b61022d61155c565b6040805160208082528351818301528351919283929083019185019080838360005b8381101561026757818101518382015260200161024f565b50505050905090810190601f1680156102945780820380516001836020036101000a031916815260200191505b509250505060405180910390f35b610348600480360360408110156102b857600080fd5b810190602081018135600160201b8111156102d257600080fd5b8201836020820111156102e457600080fd5b803590602001918460018302840111600160201b8311171561030557600080fd5b91908080601f01602080910402602001604051908101604052809392919081815260200183838082843760009201919091525092955050913592506115f2915050565b005b6103486004803603606081101561036057600080fd5b810190602081018135600160201b81111561037a57600080fd5b82018360208201111561038c57600080fd5b803590602001918460018302840111600160201b831117156103ad57600080fd5b91908080601f0160208091040260200160405190810160405280939291908181526020018383808284376000920191909152509295949360208101935035915050600160201b8111156103ff57600080fd5b82018360208201111561041157600080fd5b803590602001918460018302840111600160201b8311171561043257600080fd5b91908080601f0160208091040260200160405190810160405280939291908181526020018383808284376000920191909152509295949360208101935035915050600160201b81111561048457600080fd5b82018360208201111561049657600080fd5b803590602001918460018302840111600160201b831117156104b757600080fd5b91908080601f0160208091040260200160405190810160405280939291908181526020018383808284376000920191909152509295506117e2945050505050565b61059c6004803603602081101561050e57600080fd5b810190602081018135600160201b81111561052857600080fd5b82018360208201111561053a57600080fd5b803590602001918460018302840111600160201b8311171561055b57600080fd5b91908080601f016020809104026020016040519081016040528093929190818152602001838380828437600092019190915250929550611975945050505050565b604080519115158252519081900360200190f35b610348600480360360408110156105c657600080fd5b810190602081018135600160201b8111156105e057600080fd5b8201836020820111156105f257600080fd5b803590602001918460018302840111600160201b8311171561061357600080fd5b91908080601f0160208091040260200160405190810160405280939291908181526020018383808284376000920191909152509295949360208101935035915050600160201b81111561066557600080fd5b82018360208201111561067757600080fd5b803590602001918460018302840111600160201b8311171561069857600080fd5b91908080601f016020809104026020016040519081016040528093929190818152602001838380828437600092019190915250929550611995945050505050565b61022d611a7a565b610348600480360360408110156106f757600080fd5b508035151590602001356001600160a01b0316611adb565b610348611b5f565b61071f611bcb565b60405180836001600160a01b0316815260200180602001828103825283818151815260200191508051906020019080838360005b8381101561076b578181015183820152602001610753565b50505050905090810190601f1680156107985780820380516001836020036101000a031916815260200191505b50935050505060405180910390f35b6107c4600480360360208110156107bd57600080fd5b5035611c68565b604051808581526020018060200180602001848152602001838103835286818151815260200191508051906020019080838360005b838110156108115781810151838201526020016107f9565b50505050905090810190601f16801561083e5780820380516001836020036101000a031916815260200191505b50838103825285518152855160209182019187019080838360005b83811015610871578181015183820152602001610859565b50505050905090810190601f16801561089e5780820380516001836020036101000a031916815260200191505b50965050505050505060405180910390f35b610213611da7565b6108c0611dad565b60405180806020018060200180602001806020018060200186810386528b818151815260200191508051906020019080838360005b8381101561090d5781810151838201526020016108f5565b50505050905090810190601f16801561093a5780820380516001836020036101000a031916815260200191505b5086810385528a5181528a516020918201918c019080838360005b8381101561096d578181015183820152602001610955565b50505050905090810190601f16801561099a5780820380516001836020036101000a031916815260200191505b5086810384528951815289516020918201918b019080838360005b838110156109cd5781810151838201526020016109b5565b50505050905090810190601f1680156109fa5780820380516001836020036101000a031916815260200191505b5086810383528851815288516020918201918a019080838360005b83811015610a2d578181015183820152602001610a15565b50505050905090810190601f168015610a5a5780820380516001836020036101000a031916815260200191505b50868103825287518152875160209182019189019080838360005b83811015610a8d578181015183820152602001610a75565b50505050905090810190601f168015610aba5780820380516001836020036101000a031916815260200191505b509a505050505050505050505060405180910390f35b610ad861208f565b604080516001600160a01b039092168252519081900360200190f35b61022d61209e565b61034860048036036020811015610b1257600080fd5b810190602081018135600160201b811115610b2c57600080fd5b820183602082011115610b3e57600080fd5b803590602001918460018302840111600160201b83111715610b5f57600080fd5b91908080601f0160208091040260200160405190810160405280939291908181526020018383808284376000920191909152509295506120fc945050505050565b61022d61216c565b610ad86121cd565b61059c6121dc565b61034860048036036040811015610bce57600080fd5b6001600160a01b038235169190810190604081016020820135600160201b811115610bf857600080fd5b820183602082011115610c0a57600080fd5b803590602001918460018302840111600160201b83111715610c2b57600080fd5b91908080601f0160208091040260200160405190810160405280939291908181526020018383808284376000920191909152509295506121ea945050505050565b610348600480360360c0811015610c8257600080fd5b810190602081018135600160201b811115610c9c57600080fd5b820183602082011115610cae57600080fd5b803590602001918460018302840111600160201b83111715610ccf57600080fd5b91908080601f0160208091040260200160405190810160405280939291908181526020018383808284376000920191909152509295949360208101935035915050600160201b811115610d2157600080fd5b820183602082011115610d3357600080fd5b803590602001918460018302840111600160201b83111715610d5457600080fd5b91908080601f0160208091040260200160405190810160405280939291908181526020018383808284376000920191909152509295949360208101935035915050600160201b811115610da657600080fd5b820183602082011115610db857600080fd5b803590602001918460018302840111600160201b83111715610dd957600080fd5b91908080601f0160208091040260200160405190810160405280939291908181526020018383808284376000920191909152509295949360208101935035915050600160201b811115610e2b57600080fd5b820183602082011115610e3d57600080fd5b803590602001918460018302840111600160201b83111715610e5e57600080fd5b91908080601f0160208091040260200160405190810160405280939291908181526020018383808284376000920191909152509295949360208101935035915050600160201b811115610eb057600080fd5b820183602082011115610ec257600080fd5b803590602001918460018302840111600160201b83111715610ee357600080fd5b91908080601f016020809104026020016040519081016040528093929190818152602001838380828437600092019190915250929550505090356001600160a01b031691506122779050565b6102136123b4565b61034860048036036060811015610f4d57600080fd5b81359190810190604081016020820135600160201b811115610f6e57600080fd5b820183602082011115610f8057600080fd5b803590602001918460018302840111600160201b83111715610fa157600080fd5b91908080601f0160208091040260200160405190810160405280939291908181526020018383808284376000920191909152509295949360208101935035915050600160201b811115610ff357600080fd5b82018360208201111561100557600080fd5b803590602001918460018302840111600160201b8311171561102657600080fd5b91908080601f0160208091040260200160405190810160405280939291908181526020018383808284376000920191909152509295506123ba945050505050565b610ad86004803603602081101561107d57600080fd5b810190602081018135600160201b81111561109757600080fd5b8201836020820111156110a957600080fd5b803590602001918460018302840111600160201b831117156110ca57600080fd5b91908080601f01602080910402602001604051908101604052809392919081815260200183838082843760009201919091525092955061243b945050505050565b61022d612461565b61059c6124c2565b61059c6124cb565b610ad86004803603602081101561113957600080fd5b50356124d4565b61022d6124fb565b6103486004803603602081101561115e57600080fd5b810190602081018135600160201b81111561117857600080fd5b82018360208201111561118a57600080fd5b803590602001918460018302840111600160201b831117156111ab57600080fd5b91908080601f01602080910402602001604051908101604052809392919081815260200183838082843760009201919091525092955061255c945050505050565b6112096004803603602081101561120257600080fd5b50356125ad565b604051808481526020018060200180602001838103835285818151815260200191508051906020019080838360005b83811015611250578181015183820152602001611238565b50505050905090810190601f16801561127d5780820380516001836020036101000a031916815260200191505b50838103825284518152845160209182019186019080838360005b838110156112b0578181015183820152602001611298565b50505050905090810190601f1680156112dd5780820380516001836020036101000a031916815260200191505b509550505050505060405180910390f35b61059c6126e6565b610ad86126f4565b6113246004803603602081101561131457600080fd5b50356001600160a01b0316612703565b60405180896001600160a01b0316815260200180602001806020018060200188151581526020018715158152602001806020018060200186810386528d818151815260200191508051906020019080838360005b83811015611390578181015183820152602001611378565b50505050905090810190601f1680156113bd5780820380516001836020036101000a031916815260200191505b5086810385528c5181528c516020918201918e019080838360005b838110156113f05781810151838201526020016113d8565b50505050905090810190601f16801561141d5780820380516001836020036101000a031916815260200191505b5086810384528b5181528b516020918201918d019080838360005b83811015611450578181015183820152602001611438565b50505050905090810190601f16801561147d5780820380516001836020036101000a031916815260200191505b5086810383528851815288516020918201918a019080838360005b838110156114b0578181015183820152602001611498565b50505050905090810190601f1680156114dd5780820380516001836020036101000a031916815260200191505b50868103825287518152875160209182019189019080838360005b838110156115105781810151838201526020016114f8565b50505050905090810190601f16801561153d5780820380516001836020036101000a031916815260200191505b509d505050505050505050505050505060405180910390f35b60045490565b600b8054604080516020601f60026000196101006001881615020190951694909404938401819004810282018101909252828152606093909290918301828280156115e85780601f106115bd576101008083540402835291602001916115e8565b820191906000526020600020905b8154815290600101906020018083116115cb57829003601f168201915b5050505050905090565b6001546001600160a01b0316331461164b576040805162461bcd60e51b815260206004820152601760248201527621b0b63632b91034b9903737ba1037b933b0b734bd32b960491b604482015290519081900360640190fd5b6009826040518082805190602001908083835b6020831061167d5780518252601f19909201916020918201910161165e565b51815160209384036101000a600019018019909216911617905292019485525060405193849003019092205460ff161591506117029050576040805162461bcd60e51b815260206004820152601c60248201527f54686973207369676e617475726520686173206265656e207573656400000000604482015290519081900360640190fd5b601054610100900460ff1615611756576040805162461bcd60e51b8152602060048201526014602482015273159bdd19481a5cc81b9bdd08199a5b9a5cda195960621b604482015290519081900360640190fd5b60016009836040518082805190602001908083835b6020831061178a5780518252601f19909201916020918201910161176b565b51815160209384036101000a600019018019909216911617905292019485525060408051948590038201909420805460ff19169515159590951790945550506000928352600690915290206003018054600101905550565b6117ea612a09565b50604080516101008101825233808252602080830187815283850187905260608401869052600060808501819052600160a086018190528651808501885282815260c08701528651808501885282815260e08701529381526007835294909420835181546001600160a01b0319166001600160a01b039091161781559351805193948594909361187f93908501920190612a5b565b506040820151805161189b916002840191602090910190612a5b565b50606082015180516118b7916003840191602090910190612a5b565b50608082015160048201805460a085015115156101000261ff001993151560ff19909216919091179290921691909117905560c08201518051611904916005840191602090910190612a5b565b5060e08201518051611920916006840191602090910190612a5b565b505060118054600181810183556000929092527f31ecc21a745e3968a04e9570e4425bc18fa8019c68028196b546d1669c200c680180546001600160a01b031916331790556004805490910190555050505050565b805160208183018101805160098252928201919093012091525460ff1681565b6000546001600160a01b031633146119ea576040805162461bcd60e51b815260206004820152601360248201527221b0b63632b91034b9903737ba1020b236b4b760691b604482015290519081900360640190fd5b6119f2612ad9565b5060408051608081018252600354808252602080830186815283850186905260006060850181905292835260068252939091208251815592518051929384939092611a44926001850192910190612a5b565b5060408201518051611a60916002840191602090910190612a5b565b506060919091015160039182015580546001019055505050565b600f8054604080516020601f60026000196101006001881615020190951694909404938401819004810282018101909252828152606093909290918301828280156115e85780601f106115bd576101008083540402835291602001916115e8565b6001546001600160a01b03163314611b34576040805162461bcd60e51b815260206004820152601760248201527621b0b63632b91034b9903737ba1037b933b0b734bd32b960491b604482015290519081900360640190fd5b6001600160a01b03166000908152600760205260409020600401805460ff1916911515919091179055565b6000546001600160a01b03163314611bb4576040805162461bcd60e51b815260206004820152601360248201527221b0b63632b91034b9903737ba1020b236b4b760691b604482015290519081900360640190fd5b6010805460ff1961ff001990911661010017169055565b6001805460028054604080516020610100848816150260001901909316849004601f81018490048402820184019092528181526001600160a01b0390941694939291830182828015611c5e5780601f10611c3357610100808354040283529160200191611c5e565b820191906000526020600020905b815481529060010190602001808311611c4157829003601f168201915b5050505050905082565b6006602090815260009182526040918290208054600180830180548651600293821615610100026000190190911692909204601f810186900486028301860190965285825291949293909290830182828015611d055780601f10611cda57610100808354040283529160200191611d05565b820191906000526020600020905b815481529060010190602001808311611ce857829003601f168201915b50505060028085018054604080516020601f6000196101006001871615020190941695909504928301859004850281018501909152818152959695945090925090830182828015611d975780601f10611d6c57610100808354040283529160200191611d97565b820191906000526020600020905b815481529060010190602001808311611d7a57829003601f168201915b5050505050908060030154905084565b60035490565b600b8054604080516020601f60026000196101006001881615020190951694909404938401819004810282018101909252828152918391830182828015611e355780601f10611e0a57610100808354040283529160200191611e35565b820191906000526020600020905b815481529060010190602001808311611e1857829003601f168201915b505050505090806001018054600181600116156101000203166002900480601f016020809104026020016040519081016040528092919081815260200182805460018160011615610100020316600290048015611ed35780601f10611ea857610100808354040283529160200191611ed3565b820191906000526020600020905b815481529060010190602001808311611eb657829003601f168201915b50505060028085018054604080516020601f6000196101006001871615020190941695909504928301859004850281018501909152818152959695945090925090830182828015611f655780601f10611f3a57610100808354040283529160200191611f65565b820191906000526020600020905b815481529060010190602001808311611f4857829003601f168201915b5050505060038301805460408051602060026001851615610100026000190190941693909304601f8101849004840282018401909252818152949594935090830182828015611ff55780601f10611fca57610100808354040283529160200191611ff5565b820191906000526020600020905b815481529060010190602001808311611fd857829003601f168201915b5050505060048301805460408051602060026001851615610100026000190190941693909304601f81018490048402820184019092528181529495949350908301828280156120855780601f1061205a57610100808354040283529160200191612085565b820191906000526020600020905b81548152906001019060200180831161206857829003601f168201915b5050505050905085565b6000546001600160a01b031690565b60028054604080516020601f60001961010060018716150201909416859004938401819004810282018101909252828152606093909290918301828280156115e85780601f106115bd576101008083540402835291602001916115e8565b6001546001600160a01b03163314612155576040805162461bcd60e51b815260206004820152601760248201527621b0b63632b91034b9903737ba1037b933b0b734bd32b960491b604482015290519081900360640190fd5b8051612168906002906020840190612a5b565b5050565b600c8054604080516020601f60026000196101006001881615020190951694909404938401819004810282018101909252828152606093909290918301828280156115e85780601f106115bd576101008083540402835291602001916115e8565b6001546001600160a01b031690565b601054610100900460ff1690565b6001546001600160a01b03163314612243576040805162461bcd60e51b815260206004820152601760248201527621b0b63632b91034b9903737ba1037b933b0b734bd32b960491b604482015290519081900360640190fd5b6001600160a01b0382166000908152600760209081526040909120825161227292600690920191840190612a5b565b505050565b6000546001600160a01b031633146122cc576040805162461bcd60e51b815260206004820152601360248201527221b0b63632b91034b9903737ba1020b236b4b760691b604482015290519081900360640190fd5b6040805160a0810182528781526020808201889052918101869052606081018590526080810184905287519091600b9161230b918391908b0190612a5b565b5060208281015180516123249260018501920190612a5b565b5060408201518051612340916002840191602090910190612a5b565b506060820151805161235c916003840191602090910190612a5b565b5060808201518051612378916004840191602090910190612a5b565b5050600180546001600160a01b0319166001600160a01b0393909316929092178255506010805460ff191690911761ff00191690555050505050565b60035481565b6123c2612b01565b506040805160608101825284815260208082018581528284018590526005546000908152600a835293909320825181559251805192938493909261240d926001850192910190612a5b565b5060408201518051612429916002840191602090910190612a5b565b50506005805460010190555050505050565b80516020818301810180516008825292820191909301209152546001600160a01b031681565b600d8054604080516020601f60026000196101006001881615020190951694909404938401819004810282018101909252828152606093909290918301828280156115e85780601f106115bd576101008083540402835291602001916115e8565b60105460ff1681565b60105460ff1690565b601181815481106124e157fe5b6000918252602090912001546001600160a01b0316905081565b600e8054604080516020601f60026000196101006001881615020190951694909404938401819004810282018101909252828152606093909290918301828280156115e85780601f106115bd576101008083540402835291602001916115e8565b3360009081526007602052604090206004015460ff1661257b57600080fd5b33600090815260076020908152604090912060048101805460ff19169055825161216892600590920191840190612a5b565b600a602090815260009182526040918290208054600180830180548651600293821615610100026000190190911692909204601f81018690048602830186019096528582529194929390929083018282801561264a5780601f1061261f5761010080835404028352916020019161264a565b820191906000526020600020905b81548152906001019060200180831161262d57829003601f168201915b50505060028085018054604080516020601f60001961010060018716150201909416959095049283018590048502810185019091528181529596959450909250908301828280156126dc5780601f106126b1576101008083540402835291602001916126dc565b820191906000526020600020905b8154815290600101906020018083116126bf57829003601f168201915b5050505050905083565b601054610100900460ff1681565b6000546001600160a01b031681565b6007602090815260009182526040918290208054600180830180548651600261010094831615949094026000190190911692909204601f81018690048602830186019096528582526001600160a01b039092169492939092908301828280156127ad5780601f10612782576101008083540402835291602001916127ad565b820191906000526020600020905b81548152906001019060200180831161279057829003601f168201915b50505060028085018054604080516020601f600019610100600187161502019094169590950492830185900485028101850190915281815295969594509092509083018282801561283f5780601f106128145761010080835404028352916020019161283f565b820191906000526020600020905b81548152906001019060200180831161282257829003601f168201915b5050505060038301805460408051602060026001851615610100026000190190941693909304601f81018490048402820184019092528181529495949350908301828280156128cf5780601f106128a4576101008083540402835291602001916128cf565b820191906000526020600020905b8154815290600101906020018083116128b257829003601f168201915b5050505060048301546005840180546040805160206002610100600186161581026000190190951604601f8101829004820283018201909352828252969760ff80871698949096049095169550929183018282801561296f5780601f106129445761010080835404028352916020019161296f565b820191906000526020600020905b81548152906001019060200180831161295257829003601f168201915b5050505060068301805460408051602060026001851615610100026000190190941693909304601f81018490048402820184019092528181529495949350908301828280156129ff5780601f106129d4576101008083540402835291602001916129ff565b820191906000526020600020905b8154815290600101906020018083116129e257829003601f168201915b5050505050905088565b60405180610100016040528060006001600160a01b0316815260200160608152602001606081526020016060815260200160001515815260200160001515815260200160608152602001606081525090565b828054600181600116156101000203166002900490600052602060002090601f016020900481019282601f10612a9c57805160ff1916838001178555612ac9565b82800160010185558215612ac9579182015b82811115612ac9578251825591602001919060010190612aae565b50612ad5929150612b22565b5090565b6040518060800160405280600081526020016060815260200160608152602001600081525090565b60405180606001604052806000815260200160608152602001606081525090565b5b80821115612ad55760008155600101612b2356fea2646970667358221220833cc321f687e4678b550d886a83f0cf0855be54a7dc7f8228e00a91bbdd90c164736f6c63430007000033",
  "linkReferences": {},
  "deployedLinkReferences": {}
}